:020000040800F2
:100000003012002001010008270F0008650E0008CB
:10001000250F0008B1010008ED0F000800000000E6
:10002000000000000000000000000000510F000868
:10003000B301000800000000290F0008530F00085A
:100040001B0100081B0100081B0100081B01000820
:100050001B0100081B0100081B0100081B01000810
:100060001B0100081B0100081B0100081B01000800
:100070001B0100081B0100081B0100081B010008F0
:100080001B0100081B0100081B0100081B010008E0
:100090001B0100081B0100081B0100081B010008D0
:1000A0001B0100081B0100081B0100081B010008C0
:1000B0001B0100081B0100081B0100081B010008B0
:1000C0001B0100081B0100081B0100081B010008A0
:1000D0001B0100081B0100081B0100081B01000890
:1000E0001B0100081B0100081B010008DFF80CD0F1
:1000F00000F04CF8004800470D10000830120020B6
:100100000648804706480047FEE7FEE7FEE7FEE7B1
:10011000FEE7FEE7FEE7FEE7FEE7FEE7A50F0008C5
:10012000ED000008202A04DB203A21FA02F0002129
:10013000704721FA02F3D040C2F1200291400843F7
:100140001946704740EA01039B0703D009E008C93C
:10015000121F08C0042AFAD203E011F8013B00F88C
:10016000013B521EF9D27047D2B201E000F8012BD8
:10017000491EFBD270470022F6E710B513460A4627
:1001800004461946FFF7F0FF204610BD064C074D08
:1001900006E0E06840F0010394E807009847103457
:1001A000AC42F6D3FFF7A6FF98100008B81000087D
:1001B000FEE77047064A0021D16106490A6942F00C
:1001C00002020A614861086940F040000861704716
:1001D0001002002000200240044B0022DA61044A91
:1001E000136943F00103136101807047100200207E
:1001F0000020024000201649CA6812F0100F154A6C
:1002000004D0D06940F00200D0611020CB6813F018
:10021000040F05D0D36943F00103D36140F004001B
:10022000CB6913F0010F07D0D36943F00403D36106
:10023000CA6922F00102CA61A0F58072013A01D0B8
:10024000C8607047C86920F00100C86170470000AD
:10025000002002401002002070B5044600F02EFA83
:100260000646164DE86810F0010F0ED0B4F1FF3FBE
:1002700007D024B100F022FA801BA04201D903204C
:1002800070BDE86810F0010FF0D1E86810F0200FA1
:1002900001D02020E860E86810F0100F07D1E8696D
:1002A00010F0010F03D1E86810F0040F03D0FFF73E
:1002B000A1FF012070BD002070BD000000200240A1
:1002C000F0B50F4D00248318AB4217D8C30705D0F3
:1002D00030F8013C01241B0A0B70401C0023551E02
:1002E000171B09E01E19C25A8A55AE4202DA0E44A3
:1002F000120A72709B1C9BB29F42F3DCF0BD00009F
:10030000000001082DE9F04FC0F30903C61A831B52
:10031000ADF2044D9FB2894615464FF00108B0F189
:10032000006F41D32249104488423DD2002D3BD07A
:1003300000F0AEF8EB464FF4806A00205946524672
:1003400033580B50001D80B29042F9D30024C819D5
:1003500005E000BF19F804100155641CA4B2E119AE
:10036000514501D2AC42F5D33046FFF723FF4CF2A2
:10037000503703E03846FFF76FFF8046B8F1000FB3
:10038000F8D10C48016921F0020101615246694629
:10039000304600F011F82D1BA1444FF0000706F580
:1003A0008066CAD100F020F80DF2044DBDE8F08F50
:1003B00000000108002002402DE9F04117460E46DA
:1003C000804600240CE000BF08EB040532592946A2
:1003D0000023022000F012F80028F7D1241DA4B257
:1003E000BC42F1D3BDE8F0810348016941F08001CE
:1003F0000161002070470000002002402DE9F04715
:100400000746884615461E460024DFF87C9099F87A
:100410001800012808D0012089F818004CF250304B
:10042000FFF71AFF18B129E00220BDE8F087012F7D
:100430001CD0022F1CD00427002F1FD9DFF84CA09E
:10044000220128463146FFF76DFE81B208EB4400D9
:10045000FFF7C2FE4CF25030FFF7FEFEDAF8101044
:1004600021F00101CAF8101040B903E00127E3E7C9
:100470000227E1E7611CCCB2BC42E1D3002189F83C
:100480001810BDE8F0870000100200200020024094
:10049000002007490A6912F0800F08D0054A4A6017
:1004A000054A4A60096911F0800F00D001207047A9
:1004B0000020024023016745AB89EFCD2DE9F84FBD
:1004C00000239C46DFF8D8810F2708F1040909F1C1
:1004D000040A0AF1040B012202FA0CF60A683240FF
:1004E000B2427CD1DFF8BCE14C68A4EB0E05744548
:1004F0002BD00DDC032C34D005DC34B3012C19D007
:10050000022C2FD11BE0112C16D0122C2AD119E06D
:10051000B5F5881F19D006DCB5F5803F15D0B5F5C7
:10052000801F1FD111E0B5F5001F0ED0B5F5041FD7
:1005300018D10AE0CB6815E0CB681B1D12E0CB6830
:1005400008330FE0CB680C330CE08B6823B1012B30
:1005500004D00823466105E0042303E00823066174
:1005600000E00023B2F5807F01D2054601E000F1F2
:10057000040502D24FEA8C0403E0ACF108044FEA10
:1005800084042E6807FA04FE26EA0E0603FA04F431
:1005900046EA04042C604C6814F0805F78D0424C2A
:1005A000A56945F00105A561A46904F00104009462
:1005B0002CF0030404F1804404F58034A6684FEA6B
:1005C0008C754FEA157507FA05FE26EA0E0EA0F1A6
:1005D0008046B6F5843620D0A0F1804600E057E092
:1005E000B6F586361BD0A0F18046B6F5883618D011
:1005F000A0F18046B6F58A3615D0042606FA05F530
:1006000045EA0E05A5604C6814F4803F0DD0D8F87B
:1006100000401443C8F800400CE00026EEE7012635
:10062000ECE70226EAE70326E8E7D8F8004094431F
:10063000C8F800404C6814F4003F05D0D9F80040D9
:100640001443C9F8004004E0D9F800409443C9F8C5
:1006500000404C6814F4801F05D0DAF800401443C1
:10066000CAF8004004E0DAF800409443CAF80040B9
:100670004C6814F4001F05D0DBF800402243CBF88F
:10068000002005E0DBF8004024EA0202CBF800205D
:100690000CF1010CBCF1100FFFF41DAFBDE8F88F99
:1006A000000401400000111000100240002A01D097
:1006B00001617047090401617047000001488068CA
:1006C000704700000400002002488168027811444D
:1006D000816070470400002010B50748016841F0B0
:1006E00010010160032000F07DF8002000F006F802
:1006F00000F026F8002010BD0020024070B504462E
:100700000D4D4FF47A712878B1FBF0F00B49096870
:10071000B1FBF0F000F092FB08B1012070BD102C8D
:1007200007D200222146501E00F028F86C600020FD
:1007300070BD012070BD00000400002000000020FA
:100740000C4808B5816941F001018161816901F0BE
:1007500001010091C16941F08051C161C06900F09F
:10076000805000900448416821F0E06141F0007140
:10077000416008BD001002400000014010B4184B59
:100780001B68C3F30223C3F1070CBCF1040F01D9AA
:100790004FF0040C1C1D072C01D2002300E0DB1ECF
:1007A000012404FA0CFCACF1010C0CEA01019940A3
:1007B00004FA03F35B1E1A401143002808DA00F024
:1007C0000F0000F1E020090180F8141D10BC7047F3
:1007D00000F1E020090180F8001410BC704700000F
:1007E0000CED00E000F00700064A11684FF6FF0329
:1007F000194041EA002040F0FD7040F08060106038
:10080000704700000CED00E02DE9F04704460D466E
:10081000DFF8A081D8F8000000F00700A8420FD24E
:10082000D8F8000020F007002843C8F80000D8F8E6
:10083000000000F00700A84202D00120BDE8F087C8
:1008400020685D4F10F0020F14D010F0040F03D099
:10085000786840F4E0607860207810F0080F03D0EA
:10086000786840F4605078607868A16820F0F00003
:1008700008437860207810F0010F5FD0606801288D
:1008800006D002280BD0396811F0020F29D00AE0F7
:10089000396811F4003F06D10120BDE8F0873968BE
:1008A00011F0007F1AD0796821F0030108437860C5
:1008B000FFF704FF0646606841F28839012813D02B
:1008C000022824D0786810F00C0F37D0FFF7F6FE1E
:1008D000801B48452ED90320BDE8F0870120BDE8E4
:1008E000F0870120BDE8F087786800F00C0004284C
:1008F00024D0FFF7E3FE801B484502D90320BDE862
:10090000F087786800F00C000428F2D116E07868CF
:1009100000F00C00082811D0FFF7D0FE801B4845DE
:1009200002D90320BDE8F087786800F00C000828A1
:10093000F2D103E0786810F00C0FC7D1D8F80000AE
:1009400000F00700A8420FD9D8F8000020F00700F7
:100950002843C8F80000D8F8000000F00700A842BB
:1009600002D00120BDE8F087207810F0040F05D0F8
:100970007868E16820F4E06008437860207810F03F
:10098000080F06D07868216920F4605040EAC10061
:10099000786000F017F87968084AC1F30311515CD8
:1009A000C840074908600020FFF7A8FE0020BDE806
:1009B000F08700000020024000100240881000086C
:1009C0000000002085B015A0836842680168C068F7
:1009D000039302920191049014A000680090144BBC
:1009E0005968144801F00C02042A11D0082A0FD1CA
:1009F00001A8C1F38342805C11F4803F0AD059689A
:100A0000C1F340411DF801100A4A5043B0FBF1F018
:100A100005B07047084905B0484370470203040514
:100A2000060708090A0B0C0D0E0F1010010200003A
:100A30000010024000127A0000093D002DE9F84F35
:100A40000446FA4D207810F0010F68D0686800F075
:100A50000C00042808D0686800F00C0008280DD1AC
:100A6000686810F4803F09D0286810F4003F56D021
:100A70006068002853D10120BDE8F88F6068B0F5A8
:100A8000803F15D0C8B1B0F5A02F1FD0286820F442
:100A900080302860286820F480202860606858B37F
:100AA000FFF70CFE0646286810F4003F17D036E02A
:100AB000286840F480302860F0E7286820F480300F
:100AC0002860286820F480202860E7E7286840F440
:100AD00080202860286840F480302860DEE7FFF737
:100AE000EDFD801B642802D90320BDE8F88F28683B
:100AF00010F4003FF3D012E0FFF7E0FD064628684F
:100B000010F4003F0BD0FFF7D9FD801B642802D9F9
:100B10000320BDE8F88F286810F4003FF3D1207857
:100B2000C34F10F0020F4FF0010B4FF0000854D0EC
:100B3000686810F00C0F14D0686800F00C000828EA
:100B400003D1686810F4803F0BD0206978B3C7F8F0
:100B500000B0FFF7B3FD0646286810F0020F12D070
:100B60001DE0286810F0020F05D02069012802D08E
:100B70000120BDE8F88F2868616920F0F80040EA9C
:100B8000C100286029E0FFF799FD801B022802D9E7
:100B90000320BDE8F88F286810F0020FF3D0286812
:100BA000616920F0F80040EAC100286015E0FFE725
:100BB000C7F80080FFF782FD0646286810F0020F94
:100BC0000BD0FFF77BFD801B022802D90320BDE874
:100BD000F88F286810F0020FF3D1207810F0080F7A
:100BE00030D09448A169C1B1C0F800B0FFF766FDEC
:100BF0000646686A10F0020F0BD1FFF75FFD801BFD
:100C0000022802D90320BDE8F88F686A10F0020FAD
:100C1000F3D0012000F08AF914E0C0F80080FFF75B
:100C20004DFD0646686A10F0020F0BD0FFF746FD37
:100C3000801B022802D90320BDE8F88F686A10F0F3
:100C4000020FF3D1207810F0040F6FD00026E8696E
:100C500010F0805F08D1E86940F08050E861E869F1
:100C600000F0805000900126DFF8CCA1DAF80000F7
:100C700010F4807F1BD1DAF8000040F48070CAF8CD
:100C80000000FFF71BFD8146DAF8000010F4807FBA
:100C90000DD1FFF713FDA0EB0900642802D9032052
:100CA000BDE8F88FDAF8000010F4807FF1D0E0683A
:100CB000012816D0D0B1052821D0286A20F00100E3
:100CC0002862286A20F004002862E06841F2883A2D
:100CD00068B3FFF7F3FC8146286A10F0020F17D0C3
:100CE0003AE0286A40F001002862EEE7286A20F026
:100CF00001002862286A20F004002862E5E7286ADB
:100D000040F004002862286A40F001002862DCE715
:100D1000FFF7D4FCA0EB0900504502D90320BDE841
:100D2000F88F286A10F0020FF2D015E01AE0FFE702
:100D3000FFF7C4FC8146286A10F0020F0CD0FFF7C1
:100D4000BDFCA0EB0900504502D90320BDE8F88F97
:100D5000286A10F0020FF2D1012E03D1E86920F0C9
:100D60008050E861E069E8B3696801F00C01082986
:100D700058D0022810D0C7F86080FFF79FFC0446C7
:100D8000286810F0007F4AD0FFF798FC001B02286B
:100D900041D90320BDE8F88FC7F86080FFF78EFCCB
:100DA0000646286810F0007F0BD0FFF787FC801BF9
:100DB000022802D90320BDE8F88F286810F0007FD0
:100DC000F3D1206AB0F5803F05D16868A16820F4AE
:100DD000003008436860616A206A0843696821F44A
:100DE000741100E01BE008436860C7F860B0FFF7CB
:100DF00065FC0446286810F0007F10D1FFF75EFC08
:100E0000001B022802D90320BDE8F88F286810F0E3
:100E1000007FF3D003E0286810F0007FB4D10020F9
:100E2000BDE8F88F0120BDE8F88F000000100240F7
:100E3000000042428004424200700040401EB0F177
:100E4000807F01D3012070474FF0E0214861044AC0
:100E5000F020107000208861072008610020704792
:100E600023ED00E0FEE7000070B586B000242948BD
:100E70000094019402940394816941F0100181610E
:100E8000816901F010010491816941F020018161C3
:100E9000816901F020010491816941F004018161BF
:100EA000816901F004010491816941F008018161C7
:100EB0008069194E00F008004FF40055049000229C
:100EC00029463046FFF7F2FB01200095CDE90104E9
:100ED0000220039069463046FFF7F0FA4FF4404095
:100EE0000324CDE9000469463046FFF7E7FA49F6E6
:100EF000FF70CDE9000469460848FFF7DFFA4FF6B6
:100F0000FF70CDE9000469460548FFF7D7FA06B03F
:100F100070BD0000001002400010014000080140B8
:100F2000000C0140FEE770477047000081B00749A0
:100F30004FF4FA520968B1FBF2F14843009000BF48
:100F40000098411E0091FAD201B0704700000020C5
:100F50007047FFF7B9BB30B58FB028216846FFF75F
:100F60000AF914210AA8FFF706F901210804CDE9BE
:100F700000100024029402250491CDE907504FF49B
:100F8000E01009906846FFF759FD0F20CDE90A05EA
:100F90006802CDE90C4002210AA80E94FFF734FC48
:100FA0000FB030BD0D48016841F00101016041689A
:100FB0000B4A1140416001680A4A11400160016812
:100FC00021F480210160416821F4FE0141604FF469
:100FD0001F0181600449C00308607047001002408F
:100FE0000000FFF8FFFFF6FE08ED00E0FEE702E07C
:100FF00008C8121F08C1002AFAD1704770470020A4
:1010000001E001C1121F002AFBD170478AB02822DB
:1010100011A16846FFF796F8FFF75EFBFFF79BFF0D
:10102000282269461648FFF76DF916490020085432
:10103000401CC0B2FF28FAD3114CFF2228341149BA
:101040002046FFF75FF90F49FF22FF312046FFF7E7
:1010500037F9FFF709FFFEE748656C6C6F205468AD
:101060006973206973204C694D6569526F6E672002
:10107000466C61736820546573742044454D4F007D
:1010800000C0000810000020000000000000000068
:101090000102030406070809B81000080000002038
:1010A00010000000EE0F0008C8100008100000201B
:1010B00020120000FE0F000800A24A0401000000F8
:0810C000100000000000000018
:04000005080000ED02
:00000001FF
